S019000054656D70657261747572655F4D657465722E7372656321
S11300000C94BA000C94CF000C94CF000C94CF0045
S11300100C94CF000C94CF000C94CF000C94CF0020
S11300200C94CF000C94CF000C94CF000C94CF0010
S11300300C94CF000C94CF000C94CF000C94CF0000
S11300400C94CF000C94CF000C94CF000C94CF00F0
S11300500C94CF000B0124013D0156016E016E0189
S11300606E016E016E016E016E016E016E016E0114
S11300706E016E016E016E016E016E016E016E0104
S11300806E016E016E016E016E016E016E016E01F4
S11300906E016E010B0124013D0156017B019401A7
S11300A0AD01C601DE01DE01DE01DE01DE01DE019D
S11300B0DE01DE01DE01DE01DE01DE01DE01DE0144
S11300C0DE01DE01DE01DE01DE01DE01DE01DE0134
S11300D0DE01DE01DE01DE01DE01DE017B019401D1
S11300E0AD01C601EA01EC01EE01F001F101F101FB
S11300F0F101F101F101F101F101F101F101F1016C
S1130100F101F101F101F101F101F101F101F1015B
S1130110F101F101F101F101F101F101F101F1014B
S1130120F101F101EA01EC01EE01F001FD01FF0131
S1130130010203020402040204020402040204028F
S1130140040204020402040204020402040204027B
S1130150040204020402040204020402040204026B
S1130160040204020402040204020402FD01FF0169
S11301700102030211241FBECFE5D8E0DEBFCDBFCC
S113018010E0A0E6B0E0E0EBF9E002C005900D92CB
S1130190AE36B107D9F70E94B5020C94D6040C947C
S11301A0000086B1806886B987B18E7F87B987B130
S11301B08D7F87B987B18B7F87B987B1877F87B9EF
S11301C087B1806187B987B1806487B987B1806856
S11301D087B986B18E7F86B986B1826086B986B1C9
S11301E0846086B9089586B1806486B93699FECF55
S11301F024B185B190E0982F8827822B089590E050
S1130200FC01E154F109E432F10508F067C0E65D50
S1130210FF4F0C94C104413059F42AB381E090E0BB
S113022002C0880F991F6A95E2F7822B8ABB089552
S11302302AB381E090E002C0880F991F6A95E2F723
S1130240809582238ABB0895413059F427B381E015
S113025090E002C0880F991F6A95E2F7822B87BB52
S1130260089527B381E090E002C0880F991F6A9532
S1130270E2F78095822387BB0895413059F424B373
S113028081E090E002C0880F991F6A95E2F7822B03
S113029084BB089524B381E090E002C0880F991FC5
S11302A06A95E2F78095822384BB0895413059F41E
S11302B021B381E090E002C0880F991F6A95E2F7AC
S11302C0822B81BB089521B381E090E002C0880FA6
S11302D0991F6A95E2F78095822381BB089590E087
S11302E0FC01E154F109E432F10508F067C0E25B76
S11302F0FF4F0C94C104413059F42BB381E090E0DA
S113030002C0880F991F6A95E2F7822B8BBB089570
S11303102BB381E090E002C0880F991F6A95E2F741
S1130320809582238BBB0895413059F428B381E032
S113033090E002C0880F991F6A95E2F7822B88BB70
S1130340089528B381E090E002C0880F991F6A9550
S1130350E2F78095822388BB0895413059F425B390
S113036081E090E002C0880F991F6A95E2F7822B22
S113037085BB089525B381E090E002C0880F991FE2
S11303806A95E2F78095822385BB0895413059F43C
S113039022B381E090E002C0880F991F6A95E2F7CA
S11303A0822B82BB089522B381E090E002C0880FC3
S11303B0991F6A95E2F78095822382BB089590E0A5
S11303C0FC01E154F109E432F10558F4EE58FF4F11
S11303D00C94C1046ABB089567BB089564BB089577
S11303E061BB089590E0FC01E154F109E432F105A8
S11303F058F4EA56FF4F0C94C1046BBB089568BBD4
S1130400089565BB089562BB089541E062E083E40A
S11304100E946F018FE99FE00197F1F700C000008F
S113042040E062E083E40E946F018FE99FE001975E
S1130430F1F700C000000895CF93C82F40E060E0BA
S113044083E40E946F016C2F84E40E94F2010E94F5
S113045005028FEC97E00197F1F700C00000CF91FF
S113046008952FEF81EE94E0215080409040E1F711
S113047000C000006FEF84E40E94DF0141E062E00D
S113048083E40E94FF0041E061E083E40E94FF00F6
S113049041E060E083E40E94FF0040E061E083E427
S11304A00E946F0188E30E941C028FEC97E0019781
S11304B0F1F700C0000081E00E941C028FE19EE47D
S11304C00197F1F700C000008CE00E941C028FEC41
S11304D097E00197F1F700C0000086E00E941C023B
S11304E08FEC97E00197F1F700C000000895CF93D7
S11304F0C82F41E060E083E40E946F016C2F84E424
S11305000E94F2010E940502CF910895CF93DF93D8
S1130510EC0103C00E947702219688818111FACFF1
S1130520DF91CF9108959FEF980F923070F461316D
S113053070F4662371F0813019F48FE7860F0CC0D4
S1130540823049F48FEB860F07C080E805C080E84D
S113055003C080E801C080E00E941C028FEC97E099
S11305600197F1F700C0000008950E9431020E9433
S1130570D10080E690E00E9486020E94F300BC0154
S113058080E090E00E94C6032AE037ED43E25BE39B
S11305900E942C0420E030E04AE754E40E942C043A
S11305A00E949703683E23E0720708F45EC0EB01E3
S11305B0C85ED3409E01ADECBCEC0E94C7048C0124
S11305C01695079516950795169507950A30110502
S11305D090F46DE081E00E94930280E20E94770231
S11305E080E3800F0E9477028FED0E94770283E4FC
S11305F00E947702C2CF0436110508F0BECF6DE029
S113060081E00E9493029E013695279536952795A1
S1130610ABE7B4E10E94C70496958795805D0E947C
S113062077029801ADECBCEC0E94C70496958795BF
S113063096958795969587959C01220F331F880F71
S1130640991F880F991F880F991F820F931F980174
S1130650281B390BC901805D0E9477028FED0E942F
S1130660770283E40E94770288CFC8EED3E0C61BEA
S1130670D70B9E01ADECBCEC0E94C7048C0116950F
S1130680079516950795169507950A30110590F468
S11306906DE081E00E9493028DE20E94770280E384
S11306A0800F0E9477028FED0E94770283E40E94FC
S11306B0770263CF0436110508F05FCF6DE081E067
S11306C00E9493028DE20E9477029E01369527953F
S11306D036952795ABE7B4E10E94C70496958795B4
S11306E0805D0E9477029801ADECBCEC0E94C704C7
S11306F09695879596958795969587959C01220F53
S1130700331F880F991F880F991F880F991F820F15
S1130710931F9801281B390BC901805D0E94770241
S11307208FED0E94770283E40E94770226CF0E9415
S11307300B0488F09F5798F0B92F9927B751B0F060
S1130740E1F0660F771F881F991F1AF0BA95C9F751
S113075014C0B13091F00E942504B1E008950C94C6
S11307602504672F782F8827B85F39F0B93FCCF379
S1130770869577956795B395D9F73EF490958095CE
S1130780709561957F4F8F4F9F4F0895E89409C0EE
S113079097FB3EF490958095709561957F4F8F4FB0
S11307A09F4F9923A9F0F92F96E9BB279395F695C6
S11307B0879577956795B795F111F8CFFAF4BB0F44
S11307C011F460FF1BC06F5F7F4F8F4F9F4F16C0A8
S11307D0882311F096E911C0772321F09EE8872F32
S11307E0762F05C0662371F096E8862F70E060E0EE
S11307F02AF09A95660F771F881FDAF7880F969567
S1130800879597F9089557FD9058440F551F59F04F
S11308105F3F71F04795880F97FB991F61F09F3FE9
S113082079F087950895121613061406551FF2CF12
S11308304695F1DF08C0161617061806991FF1CF62
S113084086957105610508940895E894BB27662789
S11308507727CB0197F908950E943F040C94B004C4
S11308600E94A20438F00E94A90420F0952311F0FC
S11308700C9499040C949F0411240C9426040E9453
S1130880030470F3959FC1F3950F50E0551F629FC9
S1130890F001729FBB27F00DB11D639FAA27F00DD5
S11308A0B11DAA1F649F6627B00DA11D661F829FFC
S11308B02227B00DA11D621F739FB00DA11D621FE1
S11308C0839FA00D611D221F749F3327A00D611DFE
S11308D0231F849F600D211D822F762F6A2F1124E0
S11308E09F5750409AF0F1F088234AF0EE0FFF1F13
S11308F0BB1F661F771F881F91505040A9F79E3F6A
S1130900510580F00C9499040C9426045F3FE4F3A1
S1130910983ED4F3869577956795B795F795E795BF
S11309209F5FC1F7FE2B880F911D9695879597F9C8
S1130930089597F99F6780E870E060E008959FEF5D
S113094080EC089500240A94161617061806090662
S1130950089500240A941216130614060506089531
S1130960092E0394000C11F4882352F0BB0F40F4B9
S1130970BF2B11F460FF04C06F5F7F4F8F4F9F4FF9
S11309800895EE0FFF1F0590F491E02D0994A29FA6
S1130990B001B39FC001A39F700D811D1124911D4F
S11309A0B29F700D811D1124911D0895F894FFCFFD
S11109B054656D70657261747572653D00006A
S9030000FC
